:020000040800F2
:10000000FCFF002035240000192400001924000002
:1000100019240000192400001924000019240000EC
:1000200019240000192400001924000019240000DC
:1000300019240000192400001924000019240000CC
:1000400019240000192400001924000019240000BC
:1000500019240000192400001924000019240000AC
:10006000192400001924000019240000192400009C
:10007000192400001924000019240000192400008C
:10008000192400001924000019240000192400007C
:10009000192400001924000019240000192400006C
:1000A000192400001924000019240000192400005C
:1000B000192400001924000019240000192400004C
:1000C000192400001924000019240000192400003C
:1000D000192400001924000019240000192400002C
:1000E000192400001924000019240000192400001C
:1000F000192400001924000019240000192400000C
:1001000019240000192400001924000019240000FB
:1001100019240000192400001924000019240000EB
:1001200019240000192400001924000019240000DB
:1001300019240000192400001924000019240000CB
:1001400019240000192400001924000019240000BB
:1001500081B0194900EA0101084600220EE004209E
:1001600022E0082020E010201EE020201CE040209B
:100170001AE0802018E040F2001015E00F49884294
:10018000EDD00F498842ECD00E498842EBD00E49A1
:100190008842EAD00D498842E9D00D498842E8D02A
:1001A0000C498842E7D010460B49096841EA000231
:1001B00009490A6001B0704700FCFFFF00080140D8
:1001C000000C0140001001400014014000180140E3
:1001D000001C0140002001401810024081B0CDF801
:1001E00000E08CB21546774B00EA03031E46184622
:1001F000FFF7AEFFB4F1FF0F0CD1734B9D4203D15B
:100200004FF033333360D9E0422D03D14FF0443304
:100210003360D3E04FF6FF739C4214D16A4B9D428A
:1002200007D14FF033333360341D4FF03333236045
:10023000C4E0422D07D14FF044333360341D4FF0FA
:1002400044332360BAE00021002005F001030BB124
:1002500000211DE005F0020333B105F4C0730BB1BA
:10026000082100E0042113E005F0040333B105F098
:1002700020030BB1042100E0002109E005F0080390
:1002800033B105F020030BB10C2100E00821FFE79A
:100290004E4B05EA03030BB1032009E005F400739C
:1002A0000BB1022004E005F480630BB10120FFE7ED
:1002B00005F00C030BB10143FFE704F0FF039BB211
:1002C000002B3BD0376800201FFA84F832462E46B8
:1002D00008282CD24FF0010303FA00F408EA0403C3
:1002E000A34222D185004FF00F03AB40DB4307EA66
:1002F000030401FA05F344EA03031D4606F481737F
:10030000B3F5817F05D102F214044FF0010383405D
:10031000236006F08203822B05D102F210044FF015
:100320000103834023602F46FFE7401CD0E717609E
:100330001FFA88F00F463146164602E00F4629465E
:10034000A0B2B0F1FF0F39D9331DD3F800800022DD
:10035000082A30D202F208044FF0010303FA04F431
:1003600000EA0403A34224D195004FF00F03AB40F1
:10037000DB4308EA030807FA05F348EA030801F437
:100380008173B3F5817F07D106F2140502F20804E8
:100390004FF00103A3402B6001F08203822B07D1B1
:1003A00006F2100502F208044FF00103A3402B608F
:1003B000FFE7521CCCE7331DC3F80080DDF800E0F6
:1003C00001B0704700FCFFFF14000800000808009F
:1003D00081B00248006801B0704700BF740000207F
:1003E00083B0CDF800E000F0FF031A09104603F0D7
:1003F0000F02134614E0194A02921FE0184A0292B3
:100400001CE0184A029219E0174A029216E0174AB5
:10041000029213E0164A029210E0164A02920DE090
:100420000028E8D00128E9D00228EAD00328EBD040
:100430000428ECD00528EDD00628EED0012212B217
:100440009A40ADF8042002980A46BDF80410FFF760
:10045000C5FEDDF800E003B0704700BF00080140B2
:10046000000C014000100140001401400018014040
:10047000001C01400020014081B000F218010A6810
:10048000C2F3400181F00101C9B2C8B201B07047A6
:1004900081B000F214010A6800F218010968090429
:1004A00042EA0101084601B07047FFFF81B00249EE
:1004B000086001B0704700BFA081224281B00249AC
:1004C000086001B0704700BFA481224281B0024998
:1004D000086001B0704700BFB481224281B0024978
:1004E000086001B0704700BF9401214281B0024909
:1004F000086001B0704700BF9C81214281B0024971
:10050000086001B0704700BF9881214281B0024964
:10051000086001B0704700BF9001214281B00249DC
:10052000086001B0704700BF8001214281B00249DC
:10053000086001B0704700BFB001224281B002499B
:10054000086001B0704700BFAC01224281B002498F
:10055000086001B0704700BFA801224281B0024983
:10056000086001B0704700BFA881224281B00249F3
:10057000086001B0704700BF8801224281B0024983
:10058000086001B0704700BF9881214281B00249E4
:10059000086001B0704700BF9481224281B00249D7
:1005A000086001B0704700BF9881224281B0CDF849
:1005B00000E00B46FFF76CFF00EA03029A4240F2AC
:1005C000000200D10122D0B2DDF800E001B0704796
:1005D00081B0CDF800E04FF000021949884207D100
:1005E00018490B6818490A6818490A601C460BE04C
:1005F0001749884207D117490B6817490A681349F8
:100600000A601C4600E0144614490C600346184674
:10061000FFF732FF70B91149096851B12CB90520B3
:100620000A4C2468A047002005E0611E08460446E5
:10063000FFE7ECE70120DDF800E001B0704700BF04
:1006400000540040600000207C0000207800002062
:100650000058004064000020800000206800002056
:1006600081B00249086001B0704700BF9C812142FF
:1006700081B00249086001B0704700BFAC812242DE
:1006800081B00249086001B0704700BFA801224252
:1006900081B00249086001B0704700BFB8812242B2
:1006A00081B00249086001B0704700BF8C0122424E
:1006B00081B00249086001B0704700BFB08122429A
:1006C00081B00249086001B0704700BFB00122420A
:1006D00081B00249086001B0704700BFAC012242FE
:1006E00081B0CDF800E0012252B23E490A6000F22A
:1006F00068010B686FF0006103EA0102144603F021
:100700000061C90E0B4602F00041B1F1004F02D169
:1007100035490A6801E035490A6804F47021090C7A
:100720000E464FF6FF7104EA01010D4604F4401134
:10073000B1F5401F0DD16FF0706102EA01010E4664
:100740002A490A686FF070610A4028490A603246F7
:1007500016E004F48011B1F5801F09D14FF00301B8
:10076000B140C94302EA010141F070610A4607E065
:10077000610D090105FA01F1C9430A4042F07062B6
:100780002BB1610D090105FA01F10A43FFE704F0FD
:100790000041B1F1004F02D113490A6001E0134951
:1007A0000A6040F2000A81464FEA8A0109EB010122
:1007B0000968B1F1FF3F10D009F134014FEA8A0313
:1007C000C91809680A4609EB030109680846114679
:1007D000FFF706FE0AF1010AE6E7DDF800E001B0E6
:1007E000704700BF000342421C000140040001406A
:1007F00082B0CDF800E0034619460191FFF7E8FD0D
:1008000040F2E83100FB01F201990A601F490978C2
:10081000C1F30311C8B21E4909180878C0B21A1DE5
:100820001968C140116019490988C1F3022188B2D1
:10083000174909180878C0B203F20802191D09689F
:10084000C140116011490988C1F3C22188B2104921
:1008500009180878C0B203F20C02191D0968C140DA
:1008600011600A490988C1F3813188B20949091820
:100870000978C8B203F2100203F20C010968B1FB57
:10088000F0F11160DDF800E002B0704704100240A2
:100890000B2800003C28000088B0CDF800E00E4690
:1008A000554B98420DD1012464B2544B1C60544CFA
:1008B000544B1C60544C554B1C60554C554B1C60A4
:1008C0000FE0554B98420CD1012464B2534B1C608D
:1008D000534C4C4B1C60534C4C4B1C60524C4D4B7E
:1008E0001C60019602901046FFF7FAFE0298019EE6
:1008F000031D1B689CB26FF03F0304EA03039DB223
:1009000003AB01901846FFF773FF0198059F059C04
:10091000464BB4FBF3F399B29BB245EA0304A4B28D
:10092000031D1C600024036864F3000303600022BD
:100930003F4B9E4212D87300B7FBF3F4A4B2042CD1
:1009400002D204231C46FFE742EA04039AB200F2F3
:1009500020044B1C9BB2236091B23FE0032306FBB3
:1009600003F4B7FBF4F31FFA83F8192306FB03F52E
:10097000B7FBF5F31FFA83F908FB04F409FB05F351
:100980003C1BFB1A9C4205D203237343B7FBF3F4D1
:10099000A4B206E019237343B7FBF3F4A4B244F402
:1009A000804440F6FF7304EA030313B944F00104E2
:1009B000FFE744F400439BB21A4392B200F22005D1
:1009C00040F22C1301FB03F4A4B240F2E833B4FB71
:1009D000F3F39BB25B1C9BB22B6091B200F21C0341
:1009E0001960002303600124036864F300030360BB
:1009F000DDF800E008B0704700540040D4034242E4
:100A0000F915000084000020FD140000880000207B
:100A1000791400008C00002000580040D8034242A6
:100A200031140000D9140000B514000040420F003A
:100A3000A086010081B0ADF800100146BDF80000AD
:100A40000B68C3F3C01202B9FAE70A1D106001B0C7
:100A50007047FFFF89B0CDF800E0834698B28C461E
:100A6000BDF824100A9E04ACADF80410ADF80800DF
:100A70002046FFF7BDFEBDF80800BDF80410644C29
:100A8000A34512D101256DB2624C2560624D634CC5
:100A90002560634D634C2560634D644C2560644D57
:100AA000644C2560079C039456E0634CA34512D127
:100AB00001256DB2614C2560614D584C2560614D3A
:100AC000584C2560604D594C2560604D594C25604F
:100AD000069C039440E05E4CA34512D101256DB203
:100AE0005C4C25605C4D4D4C25605C4D4D4C25604B
:100AF0005B4D4E4C25605B4D4E4C2560069C03942F
:100B00002AE0594CA34512D101256DB2574C2560FE
:100B1000574D424C2560574D424C2560564D434C35
:100B20002560564D434C2560069C039414E0544CBC
:100B3000A34511D101256DB2524C2560524D374C61
:100B40002560524D374C2560514D384C2560514D34
:100B5000384C2560069C0394ADF80410ADF80800ED
:100B60003046FFF7BDFDBDF80800BDF804100BF1DD
:100B7000100500242C600BF110052C680C432C6030
:100B80000BF10C0500242C6018B140F4806080B299
:100B9000FFE70BF10C052C6804432C600BF10C06ED
:100BA0000125346865F34D3434600BF10C060125E2
:100BB000346865F3C30434600BF10C060125346816
:100BC00065F3820434600BF1140500242C60039D4E
:100BD000192465434FEA8C04B5FBF4F76424B7FB92
:100BE000F4F42601350964246C433C1B240104F20F
:100BF00032056424B5FBF4F404F00F0446EA04045F
:100C00000BF10805A4B22C60DDF800E009B07047D4
:100C100000380140380342427D1600009000002059
:100C20001914000094000020011400009800002016
:100C3000491400009C00002000440040C4034242CC
:100C4000DD150000E9130000A11300008913000066
:100C500000480040C803424299160000D11300002A
:100C6000B913000061140000004C0040CC03424264
:100C700099150000391500002115000051150000DC
:100C800000500040D0034242611600008115000070
:100C9000691500009D14000082B0CDF800E0029EAE
:100CA0004FF00005564CA04206D1564C2768564CD2
:100CB0002568564C25600AE0554CA04206D1554C9B
:100CC0002768554C2568514C256000E02F46534C51
:100CD000276000F210054C00A4B22C60B94607460C
:100CE000904635461E464E493846FFF75FFC88B9A8
:100CF0004A4C24686CB1B9F1000F06D10420434C72
:100D00002468A0474FF6FF7076E0A9F10100814604
:100D1000FFE7E8E70020019729463746019E7C1E41
:100D2000A04226D206F2100508EB000424782C60BD
:100D30003A4CD4F8009082460D463A493046FFF7C7
:100D400035FC88B9354C24686CB1B9F1000F06D177
:100D500004202E4C2468A0474FF6FF704CE0A9F108
:100D600001008146FFE7E8E70AF101042046294631
:100D7000D5E706F2100508EB000424782C60274C18
:100D800027680D4628493046FFF710FC70B9234C00
:100D9000246854B137B904201C4C2468A0474FF68E
:100DA000FF7029E0781E0746FFE7EBE7012D05D12C
:100DB0000125346865F3492434601CE0012534685A
:100DC00065F308243460154C2768354617492846D2
:100DD000FFF7ECFB78B9114C24685CB137B90420FB
:100DE0000A4C2468A0474FF6FF7005E07C1E2046A1
:100DF0000746FFE7EAE70020DDF800E002B07047B1
:100E000000540040600000207C000020780000209A
:100E1000005800406400002080000020680000208E
:100E20008200070080000700840007000100030023
:100E300082B0CDF800E0CFB201469846029B4FF059
:100E400000064FF00005C44CA14207D1C34CD4F8B2
:100E50000090C34C2568C34C25600BE0C24CA142F6
:100E600007D1C24C2068C24C2568BE4C2560814623
:100E700000E0A946BF4CC4F80090F4E101F210056F
:100E80007C00A4B244F00104A4B22C600196164682
:100E90004F46019A01F214042568C5F3400464B971
:100EA000B44C246844B127B90320AE4C2468A04751
:100EB000E2E1781E0746FFE7ECE700250C6865F3E2
:100EC0008A240C6001F21404206800BF01F21804A7
:100ED0002468240440EA04042046012B05D101259E
:100EE0000C6865F349240C6004E001250C6865F387
:100EF00008240C609F4C25689146984637460E465C
:100F00009D493046FFF752FB68B99A4C24684CB1B2
:100F100025B90320934C2468A047ADE16C1E204600
:100F20000546FFE7ECE707EB090506F21004246825
:100F30002C70B8F1010F13D18E4C21683046056832
:100F4000C5F340245CB98B4C24683CB121B9032023
:100F5000844C2468A0478FE1491EFFE7EFE712E0C9
:100F6000844C216830460568C5F300245CB9814C87
:100F700024683CB121B903207A4C2468A0477BE166
:100F8000491EFFE7EFE777E101250C6865F38A2446
:100F90000C6001250C6865F3CB240C6001F2100590
:100FA0007C00A4B244F00104A4B22C604F4601F2CC
:100FB00014042568C5F3400464B96E4C246844B138
:100FC00027B90320674C2468A04755E1781E0746DF
:100FD000FFE7ECE701F21404206800BF01F21804F7
:100FE00024682404204300250C6865F38A240C60DF
:100FF000604C276801F214042568C5F3800464B9C5
:101000005C4C246844B127B90320564C2468A0479F
:1010100032E1781E0746FFE7ECE7012B05D10125F9
:101020000C6865F349240C6004E001250C6865F345
:1010300008240C60951901F2100424682C70741CAB
:10104000151901F2100424682C70012B14D1494C9D
:1010500022680D68C5F3402464B9464C246844B145
:1010600022B903203F4C2468A04705E1501E0246E8
:10107000FFE7EEE7084613E03E4C22680D68C5F333
:10108000002464B93B4C246844B122B90320354C98
:101090002468A047F0E0501E0246FFE7EEE708464E
:1010A0000025046865F3CB240460E5E001250C68A5
:1010B00065F38A240C6001F210057C00A4B244F0B0
:1010C0000104A4B22C604646C846894617461D4610
:1010D0002A494846FFF76AFA78B9264C24685CB179
:1010E000B8F1000F04D103201E4C2468A047C3E0D0
:1010F000A8F101008046FFE7EAE70021A8464A463A
:10110000B1463B46A9F10304A14222D2194C2568FD
:101110008A4617461E4618493846FFF747FA60B90F
:10112000144C246844B125B903200E4C2468A04710
:10113000A2E0681E0546FFE7EDE706EB0A0507F2A9
:10114000100424682C700AF10104214633463A4603
:10115000D8E7084C00F014B80054004060000020AC
:101160007C0000207800002000580040640000202F
:1011700080000020680000204000030002000300FF
:10118000276801930B4616464246019906F214045D
:101190002568C5F3800464B9394C246844B127B983
:1011A0000320384C2468A04766E0781E0746FFE716
:1011B000ECE70025346865F38A243460CD1806F224
:1011C000100424682C70581C2D4C236817460246C6
:1011D00006F214042568C5F3800464B9284C246819
:1011E00044B123B90320274C2468A04744E0581E8B
:1011F0000346FFE7ECE7012F07D10125346865F3CB
:10120000492434601046324621E00125346865F3F4
:10121000082434601A4CD4F8008017460D461A4949
:101220003046FFF7C3F978B9154C24685CB1B8F1C2
:10123000000F04D10320134C2468A0471CE0A8F140
:1012400001008046FFE7EAE72946324638460D1896
:1012500002F2100424682C70441C0D1902F21004D0
:1012600024682C7008E0B8F1010F3FF407AEB8F124
:10127000020F3FF489AE19E7DDF800E002B07047D5
:1012800068000020780000200100030081B00168A0
:10129000C1F3801001B0704781B00268C2F3401101
:1012A00001B9FAE7011D096888B201B07047FFFF74
:1012B00081B00168C1F3401001B0704783B0CDF830
:1012C00000E003464FF0000026498B4206D1264934
:1012D0000C6826490A6826490A600BE025498B42BA
:1012E00007D12549086825490A6821490A6004464A
:1012F00000E0044622490C60019402931846FFF76F
:1013000067F9029B019C10B94FF6FF7025E001229E
:10131000196862F30821196003F214010A68C2F324
:10132000402111B14FF6FF7017E025461C461549C4
:101330002046FFF73BF978B91149096859B135B929
:1013400006200B4C2468A0474FF6FF7005E0691E8D
:1013500008460546FFE7EAE70020DDF800E003B0B5
:10136000704700BF00540040600000207C00002057
:101370007800002000580040640000208000002019
:10138000680000200100030081B0CDF800E00348B0
:10139000FFF77CFFDDF800E001B07047004400403B
:1013A00081B0CDF800E00348FFF782FFDDF800E0F0
:1013B00001B070470044004081B0CDF800E0034820
:1013C000FFF776FFDDF800E001B07047004800400D
:1013D00081B0CDF800E00348FFF75EFFDDF800E0E4
:1013E00001B070470048004081B0CDF800E00348EC
:1013F000FFF752FFDDF800E001B070470044004005
:1014000081B0CDF800E00348FFF752FFDDF800E0BF
:1014100001B070470038014081B0CDF800E00348CA
:10142000FFF73AFFDDF800E001B0704700380140F7
:1014300081B0CDF800E00348FFF740FFDDF800E0A1
:1014400001B070470058004081B0CDF800E003487B
:10145000FFF71CFFDDF800E001B0704700380140E5
:1014600081B0CDF800E00348FFF710FFDDF800E0A1
:1014700001B070470048004081B0CDF800E008B4EA
:1014800013460A46C1B20448FFF706FC01B0DDF876
:1014900000E001B0704700BF0054004081B0CDF8BB
:1014A00000E00348FFF7F2FEDDF800E001B070470E
:1014B0000050004081B0CDF800E008B413460A4661
:1014C000C1B20448FFF7E8FB01B0DDF800E001B06D
:1014D000704700BF0058004081B0CDF800E008B46C
:1014E00013460A46C1B20448FFF7A2FC01B0DDF87A
:1014F00000E001B0704700BF0058004081B0CDF857
:1015000000E008B413460A46C1B20448FFF790FC55
:1015100001B0DDF800E001B0704700BF00540040AA
:1015200081B0CDF800E00348FFF7C2FEDDF800E02F
:1015300001B07047004C004081B0CDF800E0034896
:10154000FFF7AAFEDDF800E001B07047004C004054
:1015500081B0CDF800E00348FFF798FEDDF800E029
:1015600001B07047004C004081B0CDF800E0034866
:10157000FFF79EFEDDF800E001B07047005000402C
:1015800081B0CDF800E00348FFF786FEDDF800E00B
:1015900001B070470050004081B0CDF800E081B24A
:1015A0000348FFF747FADDF800E001B0704700BFDD
:1015B000004C004081B0CDF800E0019D2C4610B4F5
:1015C00008B493B28AB201460348FFF743FA02B067
:1015D000DDF800E001B070470048004081B0CDF870
:1015E00000E081B20348FFF725FADDF800E001B022
:1015F000704700BF0044004081B0CDF800E00348D0
:10160000FFF75CFEDDF800E001B0704700540040D9
:1016100081B0CDF800E0019D2C4610B408B493B21F
:101620008AB201460348FFF715FA02B0DDF800E080
:1016300001B070470044004081B0CDF800E0019D4A
:101640002C4610B408B493B28AB201460348FFF79F
:1016500001FA02B0DDF800E001B070470038014047
:1016600081B0CDF800E081B20348FFF7E3F9DDF87F
:1016700000E001B0704700BF0050004081B0CDF8DD
:1016800000E081B20348FFF7D5F9DDF800E001B0D2
:10169000704700BF0038014081B0CDF800E081B252
:1016A0000348FFF7C7F9DDF800E001B0704700BF5D
:1016B0000048004081B0CDF800E00A4601460348EA
:1016C000FFF7EAF8DDF800E001B070470054004091
:1016D00081B00091014600980B461C465A1C1546E5
:1016E0000346421C10461A78227022780AB12B4613
:1016F000F3E7084601B0704781B02DE9FA414FEA9F
:1017000002244FEA42052D0E04D1002C18BF4FF0E1
:1017100000006CE044F00044FF2D5FD04FEA9404D9
:10172000002A48BF64424FEA00214FEA40031B0EE3
:1017300005D1002914BF4FF00000104657E041F0DA
:101740000041FF2B4BD04FEA9101002848BF49428E
:101750005E1B41BF0F4621463C46764248BF2B46A2
:10176000192E47BF44FA06F7C9194FF0000803E0E5
:10177000C6F11C0704FA07F8002904BF4FF0000067
:1017800035E046BF49424FF001074FF00007A3F193
:1017900001034900FBD511F080040DD001F02005B4
:1017A00048EA0508803128BF5B1C01F0400458EA74
:1017B000040808BF21F480719B1CDCBF4FF00000BF
:1017C00015E0FF2B0DD221F0FF014FEA41014FEA56
:1017D000512040EAC35040EAC77008E010464FEA83
:1017E000D0774FEAC777FF204FEAC0503843BDE8B3
:1017F000FA4101B07047FFFF81B0FAB590EA0206E6
:101800004CBF4FF000464FF000064FEA00214FEA70
:1018100040031B0E12BF41F000414FF000002CE0CE
:10182000FF2B26D04FEA02244FEA42052D0E12BFAD
:1018300044F000444FF000001FE0FF2D19D05B1969
:10184000A1FB0454002C5CBF64005B1E803424BFE9
:101850005B1C64087E3BDCBF4FF000000DE0FF2BFB
:1018600007D24FEA142030F4000040EAC35030435E
:1018700003E0FF27FF0546EA0700BDE8FA4001B094
:101880007047FFFF81B0CDF800E00178CCB2A0B284
:10189000034C2468A0470020DDF800E001B0704749
:1018A0007000002081B010B5904208BF2AE040EAE5
:1018B00002044FEA4404002C08BF23E0440004D192
:1018C000944201D4A41C012C1CE04FEA40044FEACE
:1018D0001464FF2C0AD14FEA42044FEA1464FF2C2F
:1018E00004D14FEAD274B4EBD0340BE0002A06D412
:1018F000002802DC0024012C04E0904202E00028D1
:1019000048BF8242BDE8104001B0704782B0CDF8B8
:1019100000E040F20004ADF80440054C2468A04704
:10192000BDF90440044320B2DDF800E002B0704786
:10193000A400002082B0CDF800E001AAE6211170D9
:10194000511C087000F004F901AA06490978012326
:10195000C8B211460222FFF7D9FFDDF800E002B05D
:10196000704700BF5F00002082B0CDF800E040F279
:101970000004ADF80440044C2468A047BDF90400FD
:10198000DDF800E002B07047A800002081B0D3B2BB
:10199000CAB2002400210546E0B2D6B2DFB2B1429D
:1019A0001CD26B181B7880EA0302D2B208200028F0
:1019B00010D902F08003DBB23BB15400A4B20B4B50
:1019C0001B8884EA0303DAB201E05300DAB2401E56
:1019D000C0B2ECE7491CC9B2D0B2E0E7B84201D0CE
:1019E000012000E0002001B0704700BF6C00002023
:1019F00081B0FAB590EA02064CBF4FF000464FF0B6
:101A00000006010243001B0E12BF41F000414FF0DF
:101A100000003BE0FF2B35D05FEA02245FEA42057D
:101A20005FEA156511BF44F000444FF0FF403043BA
:101A30002CE0FF2D26D05B1B0020202764084908DE
:101A4000A14240EB000028BF091B7F1E04D00029E3
:101A500018BF4900F4D1B84010F0004F04BF400057
:101A6000B3F1010380302CBF5B1C40007F33DCBF2F
:101A70004FF000000AE0FF2B04D2400A40EAC350B6
:101A8000304303E0FF27FF0556EA0700BDE8FA40B0
:101A900001B0704781B0002808BF0FE002B54FF0D9
:101AA0009E0202D4521E4000FCD580302CBF521C36
:101AB0004000400A40EAC250BDE8024001B0704711
:101AC00081B044F67F77C0F212077F1EFDD100BFC0
:101AD00000BF00BF00BF00BF01B0704781B0026807
:101AE00006490A60011D0A6805490A6000F20801FA
:101AF0000A6804490A6001B0704700BFA0000020D6
:101B0000A4000020A800002081B0CDF800E001680A
:101B100008460449FFF7CEFD0020DDF800E001B0E3
:101B2000704700BFE026000081B001B07047FFFFA2
:101B300081B0CDF800E0016808460449FFF7BAFD1E
:101B40000020DDF800E001B0704700BFE026000093
:101B500082B0CDF800E040F20004ADF80440064C3D
:101B60002468A047BDF9041041EA000000B2DDF886
:101B700000E002B0704700BFA000002081B0CDF8A7
:101B800000E0094902B440F2000340F2000240F2D2
:101B90000001FFF70FFD01B0044A05490A6000206B
:101BA000DDF800E001B070477426000099160000CF
:101BB0007000002081B0CDF800E0094902B440F285
:101BC000000340F2000240F20001FFF721FD01B0E6
:101BD000044A05490A600020DDF800E001B07047C2
:101BE0009C250000DD1500007000002081B0CDF8BC
:101BF00000E0094902B440F2000340F2000240F262
:101C00000001FFF719FD01B0044A05490A600020F0
:101C1000DDF800E001B07047082600007D160000E6
:101C20007000002081B0CDF800E0094902B440F214
:101C3000000340F2000240F20001FFF7E9FC01B0AE
:101C4000044A05490A600020DDF800E001B0704751
:101C50009C250000DD1500007000002082B0CDF84A
:101C600000E0FE208DF80400FFF772FF01A906488E
:101C7000007801230122FFF749FEFFF721FFDDF87D
:101C800000E002B0704700BF5F00002081B0CDF8D7
:101C900000E011E00846FFF771FF16E00846FFF785
:101CA00089FF12E00846FFF7A1FF0EE00846FFF7A4
:101CB000B9FF0AE0012008E00028EBD00128EDD0B0
:101CC0002028EFD03028F1D0F4E7DDF800E001B0B3
:101CD0007047FFFF81B0CDF800E08B4609E0584621
:101CE000FFF726FF0AE05846FFF70EFF06E0012047
:101CF00004E00028F3D00128F5D0F8E7DDF800E093
:101D000001B0704783B0CDF800E0024610460D22C6
:101D10008DF808200A228DF809201FE0FFF7B2FD98
:101D200023E002782AB10190FFF7ACFD0198401C36
:101D3000F7E71AE002782AB10190FFF7A3FD0198B6
:101D4000401CF7E702AA1046FFF79CFD0DF10902BF
:101D50001046FFF797FD08E0062007E00029DDD0D8
:101D60000129DED00229E5D0F6E70020DDF800E009
:101D700003B0704784B0CDF800E0E5208DF808008E
:101D8000FFF7E6FE02A93848007800230122FFF79A
:101D9000BDFD0DF109013448007801230322FFF74E
:101DA000E3FD0DF1090210784FEA00281FFA88F8C8
:101DB000501C007848EA00081FFA88F8901C007848
:101DC00001920221C2B20198FFF7E0FD20B1FFF7B6
:101DD00045FF4FF07E5042E02448007830B94FEA8A
:101DE00018181FFA88F841F2000023E01F48007815
:101DF000012808D14FEA182080B240F200111FFAE2
:101E000080F888B216E019480078022805D14FEA18
:101E1000981080B240F2004109E04FEA581081B2B8
:101E200040F60000ADF8040088B2BDF804101FFAB7
:101E300080F888B2FFF72EFE03900D4801910399B8
:101E40000A46FFF7D5FD019903901FFA88F0FFF7C6
:101E500021FE039AFFF7D0FC064AFFF74DFCDDF8A0
:101E600000E004B0704700BF5F0000205E0000206B
:101E70000000FA420000C0C086B0CDF800E08DF846
:101E80000C00E3218DF80610FFF762FE0DF106024B
:101E9000474909780023C8B211460122FFF736FDF1
:101EA0000DF10702424909780123C8B21146032205
:101EB000FFF75AFD0DF1070319784FEA01281FFAC1
:101EC00088F8591C097848EA01081FFA88F8991C13
:101ED0000978CAB202211846FFF758FD20B1FFF772
:101EE000BDFE4FF07E505EE03249097841B94FEABD
:101EF00098081FFA88F844F20001ADF8041023E0B6
:101F00002C490978012908D14FEA18181FFA88F8D6
:101F100041F20001ADF8041016E0264909780229C3
:101F200009D14FEAD80080B242F20001ADF80410A6
:101F30001FFA80F808E04FEA581188B240F6000115
:101F4000ADF804101FFA80F8BDF80400FFF7A2FDF9
:101F50000490049A1848FFF74BFD05901FFA88F08B
:101F6000FFF798FD059AFFF747FC144AFFF7C4FBFB
:101F700081469DF80C1002290BD111484A46FFF703
:101F80003BFC104AFFF734FD4FF08442FFF7B4FBEF
:101F900009E09DF80C10012904D10B484A46FFF7CF
:101FA000ABFB00E04846DDF800E006B0704700BF3C
:101FB0005F0000205E00002052B82F4366663BC2DF
:101FC000000010410000A0403393884382B0CDF858
:101FD00000E002460C460020002149B20192019A1D
:101FE000B2F1FF3F06D1714A11462046FFF770FB60
:101FF0000320D7E0012501AAD21C127802F080024A
:10200000D2B272B101AAD31C1A7882F080021A707F
:102010006A1CD3B22D222270621C1446DEB2A24684
:1020200001E0A246EEB2019A32B9614A1146504629
:10203000FFF74EFB0020B5E0019AB2F1FF4F06D149
:102040005C4A11465046FFF743FBF0B2AAE05FFA44
:1020500080F94FFA81F8019A4FF07E50FFF722FC89
:1020600040F2000000DD012048B1019A5248FFF71C
:10207000C3FB0190A8F101084FFA88F8EBE7019A39
:102080004D48FFF70FFC40F2000000DC012048B192
:10209000019A4A48FFF7B0FB019008F101084FFA96
:1020A00088F8ECE7019A5200019201AAD21C12783A
:1020B0007F3AD0B201AAD31C01221A70019A824041
:1020C000019201AAD21C127830328AF800200AF15B
:1020D0000100B8F1010F06DBB8F1060F03DC05467D
:1020E0005FFA89F103E02E220270451C01210620CF
:1020F0004FFA88F400B301AAD31C00221A70019A87
:102100009300019AD2180192019A5200019201AAF9
:10211000D21C127830322A706D1C51B9621E52B234
:1021200053B222B92E222A706D1C0121FFE75CB246
:10213000FFE7401EC0B2DDE7294660B24A1E1278B2
:10214000302A01D1491EF9E74A1E12782E2A01D100
:10215000491EFFE710B365220A70491C002806DA01
:102160002D220A70491C424250B243B200E043B2F1
:10217000D8B2DAB2092A07D90A22B0FBF2F2D2B2F7
:1021800030320A70491CFFE70A23B0FBF3F203FB6D
:102190001202D2B230320A70481C00E00846002217
:1021A00002700020DDF800E002B07047540000200B
:1021B000580000205A00002000002041CDCCCC3D2A
:1021C00082B0CDF800E040F03A018DF80400C8B2CA
:1021D000FFF7B0FB9DF8040000F00101C9B219B18E
:1021E00001220D490A7012E000F08001C9B219B154
:1021F000022209490A700AE000F08101C9B219B14E
:10220000032205490A7002E0002203490A70DDF842
:1022100000E002B0704700BF5E00002081B0CDF842
:1022200000E00446054B1A700846FFF757FC2046AD
:10223000FFF77AFCDDF800E001B070475F00002096
:1022400081B0CDF800E04AF67F17C0F2030700BF67
:1022500000BF7F1EFDD100BF00BF00BF0E4801467A
:102260000020FFF737FD42F280512020FFF70EFDDE
:102270000A480221FFF746FD44F67F77C0F21207B5
:102280007F1EFDD100BF00BF00BF00BF00BFDDF853
:1022900000E001B0704700BF3828000000000020B7
:1022A00081B01548006840F00101134801601349EE
:1022B0001348016010480168124801400E4801604F
:1022C0000D4801686FF4802001400B4801600C4804
:1022D00001686FF4FE00014009480160064801688A
:1022E0006FF0A0500140044801604FF00001064823
:1022F000016001B0704700BF001002400000FFF015
:1023000004100240FFFFF6FE2C10024081B0CDF811
:1023100000E0402208490948FFF780FFFFF79EFCD4
:10232000002040F00000C0B240F00200FFF748FF7C
:10233000DDF800E001B070472C2800004C270000B9
:102340008EB0CDF800E00220FFF796FD01A9FFF75F
:102350003DFE18480121FFF7D5FC01A80121FFF738
:10236000D1FC15480221FFF7CDFCFFF703FD01A9C1
:10237000FFF72CFE11480121FFF7C4FC01A8012141
:10238000FFF7C0FC0E480221FFF7BCFC0D480221FC
:10239000FFF7B8FC41F6FF27C0F2B70700BF00BF48
:1023A0007F1EFDD100BF00BF00BFDDF800E00EB012
:1023B000704700BF140000202400002027000020E8
:1023C000370000203B00002081B04FF000094FF0A3
:1023D000000CBDEB0A0F04DCBDEB0B0F01DBD44698
:1023E000EA464BF8049BBBEB0A0FFAD1BCEB0A0F91
:1023F00005DDE246D9F800B00BF1040BF1E701B0BE
:102400007047FFFF81B01CF8019B0BF8019BBBEBF1
:102410000A0FF8D101B0704781B0FEE701B07047F4
:1024200081B002490248016001B0704740190100C3
:102430007400002081B000F00FF800F04FFAFFF7B1
:10244000EFFF00F0FDF9FFF7FBFEFFF75FFFFFF77F
:1024500077FFFCE7FEE7FFFF81B0CDF800E0464ADA
:10246000464B474C47494BF68030814206D9464897
:10247000006840F002014448016011E045F6C05098
:10248000814206D94048006840F001013E480160A1
:1024900006E03D4801686FF0070001403A480160DE
:1024A000FFF7FEFE3948036039480460394802EA04
:1024B00000013948016002F0010040B11946364878
:1024C000006800F00200002800D1F8E700E019469B
:1024D00002F4803040B10B462F48006800F4003011
:1024E000002800D1F8E700E00B4602F0805068B108
:1024F0002948006840F0805127480160264800685C
:1025000000F00050002800D1F8E7FFE702F08060FB
:1025100078B12148006840F080611F480160114691
:102520001A461D48006800F00060002800D1F8E756
:1025300001E011461A4601F0807070B1164800683B
:1025400040F080711448016011461348006800F0A3
:10255000007000B9F9E70A46FFE70C48006800F090
:102560000C01900000F00C00814200D0F5E7DDF88E
:1025700000E001B0704700BF8100010502841D002A
:1025800044060100401901000020024004100240EE
:102590002C100240FFFF0F00001002403500000029
:1025A00036000000FFFFFFFF0000000000000000F9
:1025B000000000000000000000000000000000001B
:1025C000000000000000000000000000000000000B
:1025D00018080000180000000000000000000000C3
:1025E00000000000000000000000000000000000EB
:1025F00000000000000000000000000000000000DB
:102600000000000008000008090000000A000000A7
:10261000FFFFFFFF000000000000000000000000BE
:1026200000000000000000000000000000000000AA
:10263000000000000000000000000000180800007A
:102640001800000000000000000000000000000072
:10265000000000000000000000000000000000007A
:10266000000000000000000000000000000000006A
:10267000040000003800000039000000FFFFFFFFE9
:10268000000000000000000000000000000000004A
:10269000000000000000000000000000000000003A
:1026A00000000000000000001808000018000000F2
:1026B000000000000000000000000000000000001A
:1026C000000000000000000000000000000000000A
:1026D00000000000000000000000000030001408AE
:1026E0001600000017000000FFFFFFFF00000000C1
:1026F00000000000000000000000000000000000DA
:1027000000000000000000000000000000000000C9
:102710000000000028080000280800000000000059
:1027200000000000000000000000000000000000A9
:102730000000000000000000000000000000000099
:102740000000000000000000020000000D05000075
:102750006D050000CD0400004D0500003D050000A2
:102760002D0500001D0500005D050000BD040000F2
:10277000AD040000FD040000ED040000FFFFFFFFBA
:10278000FFFFFFFFFFFFFFFFFFFFFFFFFFFFFFFF59
:10279000FFFFFFFFFFFFFFFFFFFFFFFFFFFFFFFF49
:1027A000FFFFFFFFFFFFFFFFFFFFFFFF2D2D2D208E
:1027B00053797374656D20696E6974202D2D2D0019
:1027C0002054656D7065726174757265203A2000E1
:1027D0002043002048756D696469747920202020A9
:1027E0003A200020524800202D2D2D2D2D2D2D2D4D
:1027F0002D2D2D2D2D2D2D2D2D2D2D2D2D2D200043
:102800004E614E003000494E4600000000000001BD
:102810000203040102030406070809FF0000000088
:1028200000000000000000003101FFFFF91500006A
:1028300079140000FD140000A086010002040608BF
:1028400000B5DFF824B0DFF824A0DFF824C0FFF7DC
:10285000D9FDDFF820B0DFF820A0DFF820C0FFF7B7
:10286000D1FD00BD704700BF000000205F000020C8
:10287000AC270000600000206E0000201C28000033
:10288000FFFFFFFFFFFFFFFFFFFFFFFFFFFFFFFF58
:10289000FFFFFFFFFFFFFFFFFFFFFFFFFFFFFFFF48
:1028A000FFFFFFFFFFFFFFFFFFFFFFFFFFFFFFFF38
:1028B000FFFFFFFFFFFFFFFFFFFFFFFFFFFFFFFF28
:1028C000FFFFFFFFFFFFFFFFFFFFFFFFFFFFFFFF18
:1028D000FFFFFFFFFFFFFFFFFFFFFFFF00B5DFF878
:1028E00010B0DFF810A0FFF76FFD00BD704700BF0C
:1028F00000000020AC000020FFFFFFFFFFFFFFFFF4
:00000001FF
